:0C0000000C94C0000C9490040C94CA04F2
:040014000C9404053F
:040038000C940F0312
:040048000C942D01E6
:14008C00010203FFFF00050320FF07D1FFFF00050320000037
:1400A000D7FFFF01050320FF07D0FFFF010503200000D6007B
:1400B40000000000007A7A32317700FFFF0005032000000044
:1400C8007A7A34343030307A7A3332007A7A3331007A7A3360
:1400DC003000333430300033333030003332303000333130FA
:1400F00030003235303000323400323331330032333132000E
:140104003233313100323330330032333032003233303100CB
:140118003232003231313200323131310032313130003231BD
:14012C003032003231303100323130300031390031380031D2
:1401400037003136003135003134003133007A7A3130003158
:14015400323030003131303000313030300030323030003090
:14016800313030007A7A3030007A7A3433007A7A3432007A6F
:14017C007A343100CFEFD0E1CDBFDEBFCE51D0400AEA08834A
:140190000024E4EFF1E012E0E530F10711F00192FBCF0083B3
:1401A400ECE8F0E0A0E0B1E011E000E00BBFE038F10721F0D6
:1401B800C89531960D92F9CF0E943E05FFCF0E943F0B44279E
:1401CC0055270BC06627772702C06F5F7F4F6537E4E07E076A
:1401E000D0F34F5F5F4F4017510790F30C94440B0E94490BD5
:1401F400580122242AB82BB886E0809395001501442455248E
:1402080040E251EA67E070E05A924A923A922A928A019B0177
:14021C000E94C90A41E050E060E070E018012901241A350AB8
:14023000460A570A510129B8232C332420929000539A80E899
:140244008FBF119A0C94500B5D9BFECF0CB95E9BFECF5E9A6A
:1402580008950A921A922A923A924A925A926A927A928A9239
:14026C009A920A931A932A933A938A939A93AA93BA93EA932D
:14028000FA930FB60A92AA925798ACB00A2D11271CD000306A
:14029400010709F4579AA99009900FBEF991E991B991A99139
:1402A8009991899139912991199109919990899079906990F2
:1402BC0059904990399029901990099018950E94490B602F76
:1402D000A0902801BB24AA2011F4BB2051F0C5018130E0E0C0
:1402E4009E0761F08230E0E09E0799F02DC0683719F481E076
:1402F80080932801442726C0683721F482E08093280103C050
:14030C0022242092280144271BC00DEF11E00E94B20AA02E5D
:14032000033061F48DEF91E0EA2DFF27E80FF91F608381E0C4
:140334008093290141E008C08DEF91E0EA2DFF27E80FF91F56
:1403480060834427042F0C94500B0E94380B680186010E94AE
:14035C00B20AE02EAA2407C0EA2DFF27EC0DFD1D00816EDF10
:14037000A394AE14B8F30C942D0B0E94380BC22E7801AA24E1
:1403840007C0EA2DFF27EE0DFF1D00815DDFA394AC14B8F3EB
:140398000C942D0B0E94490B5801222420929A0020929B004B
:1403AC0086E080939D0015014424552440E251EA67E070E03C
:1403C0005A924A923A922A928A019B010E94C90A41E050E0EC
:1403D40060E070E018012901241A350A460A570A5101A09290
:1403E8009900232C33242092980080919A00886980939A002F
:1403FC0080E88FBF8B9A8D9A959A8C9A949A0C94500B2090BD
:140410009B0025FEFCCF00939C0020909B0026FEFCCF8091D5
:140424009B00806480939B0008950E94380BC22E7801AA24DE
:1404380007C0EA2DFF27EE0DFF1D0081E4DFA394AC14B8F3AF
:14044C000C942D0B0E94380BEE80FF80C884AA240FC02A2CB3
:140460003324E22FFF27E20DF31DE00FF11F2080EA2DFF271F
:14047400EE0DFF1D2082A394AC1478F30C942D0B4A935A93B7
:140488004427552702C04F5F5F4FFA01E00FF11F208033246A
:14049C002101222069F0FA01E20FF31F208033243101222026
:1404B00029F0242C33242614370449F3FA01E20FF31F208029
:1404C4003324FA01E00FF11F0081112702191309599149911F
:1404D8000895F80120802092F40121802092F50122242092F2
:1404EC00F60104EF11E00895D098D898D19A08950E94BE0A3A
:140500000E943F0B2597BE01675F7F4FFB0120802B82CF01D3
:140514000196FC0120802A820196FC0120802982AC014F5FB9
:140528005F4FBA01FA012080288222242C8229808FE7821963
:14053C008093FC018E0125960E94440B249608952497D998DD
:1405500080E0888389838A838B83C899FECF002721C0D99A5C
:14056400288039804A805B80220C331C441C551C28823982CA
:140578004A825B82D998C89B10C081E090E0A0E0B0E0288099
:14058C0039804A805B80280E391E4A1E5B1E288239824A825E
:1405A0005B8203950831E8F2D99A80E090E0A0E8B0E02880BC
:1405B40039804A805B80282639264A265B26288239824A8206
:1405C8005B82D998088119812A813B8124960895B894E1992A
:1405DC00FECF80E390E09FBB8EBB0DBBE29AE198E19A3894C4
:1405F0000895B894E199FECF80E390E09FBB8EBBE09A2DB2F8
:14060400F80120823894089584E08EBD86EF92EC9DBD8CBD99
:1406180084E086BF08950A921A922A923A924A925A926A92F4
:14062C007A928A929A920A931A932A933A938A939A93AA930B
:14064000BA93EA93FA930FB60A9226978DE291E0FE0106E06C
:1406540010E0FA93EA939A938A930E94600B74DF1093F80152
:140668000093F7013093FA012093F90143DF2090FC012C820B
:14067C008E0169DE86EF92EC9DBD8CBD269609900FBEF99152
:14069000E991B991A991999189913991299119910991999023
:1406A4008990799069905990499039902990199009901895F4
:1406B800AA92A980802F885D820F8A0DA82E082F0095A99032
:1406CC000895B894E199FECF222433243FBA2EBA0DBBE29A28
:1406E000E198E19AE199FECF81E090E09FBB8EBB2DBBE29AF3
:1406F400E198E19A38940895B894E199FECF82E090E09FBBD6
:140708008EBB0DBBE29AE198E19AE199FECF83E090E09FBBE8
:14071C008EBB2DBBE29AE198E19A38940895B894E199FECF2C
:1407300084E090E09FBB8EBB0DBBE29AE198E19AE199FECFBF
:1407440085E090E09FBB8EBB2DBBE29AE198E19A3894089568
:14075800B894E199FECF222433243FBA2EBAE09A2DB2F8012A
:14076C002082E199FECF81E090E09FBB8EBBE09A2DB2F901C9
:14078000208238940895B894E199FECF82E090E09FBB8EBB52
:14079400E09A2DB2F8012082E199FECF83E090E09FBB8EBBA0
:1407A800E09A2DB2F901208238940895B894E199FECF84E0E8
:1407BC0090E09FBB8EBBE09A2DB2F8012082E199FECF85E076
:1407D00090E09FBB8EBBE09A2DB2F901208238940895B89458
:1407E400E199FECF80E190E09FBB8EBB0DBBE29AE198E19A0E
:1407F800E199FECF81E190E09FBB8EBB2DBBE29AE198E19AD9
:14080C0038940895B894E199FECF82E190E09FBB8EBB0DBB9E
:14082000E29AE198E19AE199FECF83E190E09FBB8EBB2DBBAE
:14083400E29AE198E19A38940895B894E199FECF84E190E06F
:140848009FBB8EBB0DBBE29AE198E19AE199FECF85E190E0A4
:14085C009FBB8EBB2DBBE29AE198E19A38940895B894E1995E
:14087000FECF80E190E09FBB8EBBE09A2DB2F8012082E199C5
:14088400FECF81E190E09FBB8EBBE09A2DB2F901208238945D
:140898000895B894E199FECF82E190E09FBB8EBBE09A2DB24D
:1408AC00F8012082E199FECF83E190E09FBB8EBBE09A2DB286
:1408C000F901208238940895B894E199FECF84E190E09FBB5D
:1408D4008EBBE09A2DB2F8012082E199FECF85E190E09FBB5C
:1408E8008EBBE09A2DB2F9012082389408958898909A8998EA
:1408FC00919A14981C9A80916A008A6080936A0089B7836056
:1409100089BF8AB782608ABF89B7806189BF08950A921A92D1
:140924002A923A924A925A926A927A928A929A920A931A93D5
:140938002A933A938A939A93AA93BA93EA93FA930FB60A92E2
:14094C0020902A01222049F002E310E036DC0FEE11E0F9DC97
:14096000222420922A0109900FBEF991E991B991A991999148
:14097400899139912991199109919990899079906990599060
:140988004990399029901990099018950A921A922A923A9241
:14099C004A925A926A927A928A929A920A931A932A933A935B
:1409B0008A939A93AA93BA93EA93FA930FB60A9220902B0118
:1409C400222049F002E310E0FCDB0AEE11E0BFDC222420927C
:1409D8002B0109900FBEF991E991B991A991999189913991E3
:1409EC0029911991099199908990799069905990499039902A
:140A000029901990099018950A921A922A923A924A925A92A2
:140A14006A927A928A929A920A931A932A933A938A939A9360
:140A2800AA93BA93EA93FA930FB60A9220902C01222049F06D
:140A3C0002E310E0C2DB05EE11E085DC222420922C01099031
:140A50000FBEF991E991B991A99199918991399129911991CB
:140A64000991999089907990699059904990399029901990B3
:140A780009901895E69783E391E0FE01799609E010E0FA935C
:140A8C00EA939A938A930E94600BAA24A394CC24C394002412
:140AA00003940DAA00240EA60FA60BAA0CAA0024039409AA8E
:140AB4000AAA08AA40E161E08CE391E0FE01319607E010E0E9
:140AC800FA93EA939A938A930E94600B00E01BE48BDB00E094
:140ADC001BE45EDC95DD08DD12981A9813981B9815981D9A58
:140AF00016981E9A17981F9A78942224209204022092030263
:140B040029E00CE011E091DC02E310E05ADB29E00EE111E097
:140B18008ADC02E310E053DB29E003E011E083DC02E310E04F
:140B2C004CDB29E005E111E07CDC1CC0AA2061F00D990AC0EF
:140B400002E310E040DB0D9905C029E00CE011E06EDCAA2448
:140B5400CC2061F00E990AC002E310E032DB0E9905C029E088
:140B68000EE111E060DCCC242A2C2C2809F700EE11E0EBDB1E
:140B7C008AB180698AB9EDC480912901813009F03EC4A09036
:140B90002701BB24AA2011F4BB2061F0C5018130E0E09E0773
:140BA40009F45CC08230E0E09E0709F445C2DBC32BED31E042
:140BB8000DEF11E063DC0030010709F038C081E08093270138
:140BCC0094DE81E080932A0180932B0180932C019E012D5D5C
:140BE0003F4F8E010E5D1F4FB7DD9E01255D3F4F8E01065DD6
:140BF4001F4FC7DD9E012B5D3F4F8E010C5D1F4FD7DD9E016D
:140C0800295D3F4F8E010A5D1F4F2CDE9E01235D3F4F8E011A
:140C1C00045D1F4F3CDE9E01275D3F4F8E01085D1F4F4CDE9E
:140C30000BEF11E0DEDC26ED31E00DEF11E022DC00300107C4
:140C440009F091C382E08093270153DE81E080932A018093CF
:140C58002B0180932C0185C321ED31E00DEF11E00DDC580186
:140C6C000030010709F056C09E012D5D3F4F8E010E5D1F4F0E
:140C80006BDD9E01255D3F4F8E01065D1F4F7BDD9E012B5D8A
:140C94003F4F8E010C5D1F4F8BDD9E01295D3F4F8E010A5D47
:140CA8001F4FE0DD9E01235D3F4F8E01045D1F4FF0DD9E0196
:140CBC00275D3F4F8E01085D1F4F00DE8AE78887898783E3DC
:140CD0008A878B872AA02C862BA02D862AA42E862BA42F86ED
:140CE4002CA0288A2DA0298A2EA02A8A2FA02B8A2CA42C8A72
:140CF8002DA42D8A28A42E8A29A42F8A0BEF11E074DC20906B
:140D0C00FB01288E02E310E058DA21E18E01085F1F4F2DDBAC
:140D20002CEC31E00DEF11E0ADDB58010030010709F035C0A2
:140D34000BA80020B9F022242B8E2CA02F8E8DA18C5F88A363
:140D48008DA18C5F88832CA10027B2DCA02EA9A202E310E003
:140D5C0034DA29E08E01075E1F4F63DB0CA80020C1F081E0E6
:140D70008B8F28A42F8E89A58C5F88A389A58C5F888328A597
:140D840001E098DCC02EAC2CA9A202E310E019DA29E08E0195
:140D9800075E1F4F48DB27EC31E00DEF11E06EDB680100305E
:140DAC00010709F0C0C029A80AA8202009F4BBC022242B8E78
:140DC0002AA02F8E2BA028A22BA028822AA1002773DCC02E5F
:140DD400AC2CA9A202E310E0F4D929E08E01075E1F4F23DBDD
:140DE80081E08B8F2EA02F8E2FA028A22FA028822EA101E02F
:140DFC005DDCC02EAC2CA9A202E310E0DED929E08E01075E10
:140E10001F4F0DDBCC24C394EE24E3941CC0CC2061F00A99EC
:140E24000AC002E310E0CDD90A9905C029E00CE011E0FBDA52
:140E3800CC24EE2061F00B990AC002E310E0BFD90B9905C013
:140E4C0029E00EE111E0EDDAEE242C2C2E2811F00F99DFCFCB
:140E60000F9B67C022242B8E2AA42F8E2BA428A22BA4288211
:140E74002AA500271FDCC02EAC2CA9A202E310E0A0D929E011
:140E88008E01075E1F4FCFDA81E08B8F2CA42F8E2DA428A2A8
:140E9C002DA428822CA501E009DCC02EAC2CA9A202E310E04A
:140EB0008AD929E08E01075E1F4FB9DA22242092FC010024B4
:140EC40003940DAA2FC040DB1093F8010093F7013093FA01DD
:140ED8002093F9010FDB2090FB013090FC013214F8F00024B4
:140EEC000DAA02E310E069D929E00CE011E099DA02E310E0F6
:140F000062D929E00EE111E092DA002409AA0AAA02E310E0ED
:140F140058D902EC11E01BDA02E310E052D902EC11E015DAF6
:140F28000DA8002011F00F99CCCF0DEF11E0D1DA2FEB31E0D9
:140F3C00A3DA68010030010749F42090FF012AA22090000218
:140F50002BA2222D0AA1BBDB0DEF11E0BEDA2CEB31E090DA19
:140F640068010030010749F42090FF012AA6209000022BA698
:140F7800222D0AA5BFDB0DEF11E0ABDA29EB31E07DDA680176
:140F8C000030010749F42090FF012CA2209000022DA2222D8E
:140FA0000CA1C3DB0DEF11E098DA26EB31E06ADA6801003094
:140FB400010749F42090FF012EA2209000022FA2222D0EA1E3
:140FC8000CDC0DEF11E085DA23EB31E057DA680100300107F0
:140FDC0049F42090FF012CA6209000022DA6222D0CA510DCD1
:140FF0000DEF11E072DA20EB31E044DA68010030010749F49C
:141004002090FF0128A62090000229A6222D08A514DC0DEFF1
:1410180011E05FDA2DEA31E031DA68010030010709F09FC16D
:14102C002090FF012092FB01022D1127CFDA97C128EA31E0C7
:141040000DEF11E01FDA68010030010739F487B78B7F87BF5A
:1410540029E00CE011E0E9D923EA31E00DEF11E00FDA680183
:141068000030010701F50BA80020E9F087B78B7F87BF2224C6
:14107C002B8E4F8F862F8C5F88A3862F8C5F8883242F0027D9
:1410900013DBC02EAC2CA9A202E310E094D829E08E01075E0F
:1410A4001F4FC3D987B7846087BF2EE931E00DEF11E0E6D9F2
:1410B800680100300107E1F409A80020C9F087B78B7F87BF96
:1410CC0022242B8E4F8F68A36883242F0027EEDAC02EAC2C35
:1410E000A9A202E310E06FD829E08E01075E1F4F9ED987B775
:1410F400846087BF29E931E00DEF11E0C1D968010030010773
:1411080039F487B78B7F87BF29E00EE111E08BD924E931E0AD
:14111C000DEF11E0B1D968010030010701F50CA80020E9F004
:1411300087B78B7F87BF81E08B8F4F8F862F8C5F88A3862F44
:141144008C5F8883242F01E0B5DAC02EAC2CA9A202E310E0F8
:1411580036D829E08E01075E1F4F65D987B7846087BF2FE84D
:14116C0031E00DEF11E088D9680100300107E1F40AA80020C8
:14118000C9F087B78B7F87BF81E08B8F4F8F68A36883242F72
:1411940001E090DAC02EAC2CA9A202E310E011D829E08E0195
:1411A800075E1F4F40D987B7846087BF0DEF11E090D92CE875
:1411BC0031E062D9580100300107B9F487B78B7F87BF02E322
:1411D00010E00E94E30029E00CE011E028D902E310E00E9438
:1411E400E30029E00EE111E020D94091FF016091000227E85F
:1411F80031E00DEF11E042D958010030010719F4262F042FA4
:14120C0060DA22E831E00DEF11E036D958010030010719F4DF
:14122000262F042F6BDA2DE731E00DEF11E02AD9580100304F
:14123400010719F4262F042F76DA28E731E00DEF11E01ED9B5
:1412480058010030010719F4262F042FC6DA23E731E00DEFB5
:14125C0011E012D958010030010719F4262F042FD1DA2EE6BD
:1412700031E00DEF11E006D958010030010719F4262F042F67
:14128400DCDA0DEF11E027D92BE631E0F9D85801003001072F
:1412980039F42090FF012092FB01022D112798D926E631E0C2
:1412AC000DEF11E0E9D858010030010709F057C09E012D5DB6
:1412C0003F4F8E010E5D1F4F47DA9E01255D3F4F8E01065D62
:1412D4001F4F57DA9E012B5D3F4F8E010C5D1F4F67DA9E016C
:1412E800295D3F4F8E010A5D1F4FBCDA9E01235D3F4F8E01A8
:1412FC00045D1F4FCCDA9E01275D3F4F8E01085D1F4FDCDAA0
:141310008AE78887898783E38A878B872AA02C862BA02D86B6
:141324002AA42E862BA42F862CA0288A2DA0298A2EA02A8A2F
:141338002FA02B8A2CA42C8A2DA42D8A28A42E8A29A42F8A05
:14134C000BEF11E050D92090FB01288E02E310E00E94E300BD
:1413600021E18E01085F1F4F08D821E631E00DEF11E088D8CE
:1413740058010030010719F481E080932A012CE531E00DEF0A
:1413880011E07CD858010030010719F481E080932B0127E5C2
:14139C0031E00DEF11E070D858010030010719F481E08093E5
:1413B0002C0122E531E00DEF11E064D858010030010779F4BD
:1413C40020902A012D8220902B012E8220902C012F8227E06A
:1413D8008E010F5F1F4F0E94BD012224209229012092280139
:1413EC00AA2409C08DEF91E0EA2DFF27E80FF91F2224208235
:14140000A3948A2D8C30A0F3579A0D9927C00EA4002089F1D1
:1414140000240BAA0024039409AA87B78B7F87BF02E310E01A
:141428000E94E30029E00CE011E00E94170202E310E00E9413
:14143C00E3000DE411E00E94A90102E310E00E94E3000DE440
:1414500011E00E94A90100240EA60DC00EA4002051F404EF9C
:1414640011E00E94E3000D9B04C0002403940BAA0EA60E99C7
:1414780027C00FA4002089F100240CAA002403940AAA87B7A5
:14148C008B7F87BF02E310E00E94E30029E00EE111E00E9417
:1414A000170202E310E00E94E30008E411E00E94A90102E3B7
:1414B40010E00E94E30008E411E00E94A90100240FA60DC0E0
:1414C8000FA4002051F404EF11E00E94E3000E9B04C00024FE
:1414DC0003940CAA0FA60F992EC008A80020C9F1002409AA03
:1414F0000AAA87B78B7F87BF02E310E00E94E30029E00EE154
:1415040011E00E94170202E310E00E94E30029E00CE011E0E7
:141518000E94170202E310E00E94E30003E411E00E94A90186
:14152C0002E310E00E94E30003E411E00E94A901002408AA57
:141540000EC008A8002059F404EF11E00E94E3000F9B05C0D4
:141554000024039409AA0AAA08AA12CBE6960895E02FF12F8A
:14156800AA27BB270190002011F01196FBCF0A2F1B2F089579
:14157C003A932A931A930A930895E89401C0689430D0CC24C1
:1415900009C0E89401C068942AD037FD0E94570BB7FD52D03D
:1415A400772488249924AA24BB2442D0C1F045D0B1F0E8E23F
:1415B800000F111F221F331F771C881C991CAA1CBB1C881626
:1415CC009906AA06BB0628F0881A990AAA0ABB0A0395EA950E
:1415E00059F726F4082D192D2A2D3B2D13C07A928A929A922C
:1415F400AA92BA92CA92EA938A939A93AA93BA938B859C857D
:14160800AD85BE85C32E0EF0CB260895C7FC0E94570BB991CB
:14161C00A99199918991E991C990B990A9909990899079909C
:1416300024960895E02FE12BE22BE32B0895E82FE92BEA2B3C
:14164400EB2B089580959095A095B0958F5F9F4FAF4FBF4F43
:141658000895A990B990C990D990E990F99008957A936A93F4
:14166C005A934A93FA92EA92DA92CA92BA92AA9208957A939E
:141680006A935A934A930895499159916991799108957A9380
:141694006A935A934A93BA92AA920895A990B9904991599110
:1416A80069917991089500951095209530950F5F1F4F2F4F7F
:1416BC003F4F0895AA93BA93EA93FA930A92AF81B885ED81E4
:1416D000FE810030010729F001900D9201501040F8CF099005
:0C16E400F991E991B991A991249608951B
:00000001FF
